{
    "_format": "hh-sol-artifact-1",
    "contractName": "FileHashRegistry",
    "sourceName": "contracts/FileHashRegistry.sol",
    "abi": [
        {
            "anonymous": false,
            "inputs": [
                {
                    "indexed": true,
                    "internalType": "address",
                    "name": "user",
                    "type": "address"
                },
                {
                    "indexed": true,
                    "internalType": "uint256",
                    "name": "count",
                    "type": "uint256"
                },
                {
                    "indexed": false,
                    "internalType": "bytes32",
                    "name": "hash",
                    "type": "bytes32"
                }
            ],
            "name": "HashRegistered",
            "type": "event"
        },
        {
            "inputs": [
                {
                    "internalType": "bytes32",
                    "name": "fileHash",
                    "type": "bytes32"
                }
            ],
            "name": "registerHash",
            "outputs": [],
            "stateMutability": "nonpayable",
            "type": "function"
        },
        {
            "inputs": [
                {
                    "internalType": "address",
                    "name": "",
                    "type": "address"
                }
            ],
            "name": "userHashCounts",
            "outputs": [
                {
                    "internalType": "uint256",
                    "name": "",
                    "type": "uint256"
                }
            ],
            "stateMutability": "view",
            "type": "function"
        },
        {
            "inputs": [
                {
                    "internalType": "address",
                    "name": "",
                    "type": "address"
                },
                {
                    "internalType": "uint256",
                    "name": "",
                    "type": "uint256"
                }
            ],
            "name": "userHashes",
            "outputs": [
                {
                    "internalType": "bytes32",
                    "name": "",
                    "type": "bytes32"
                }
            ],
            "stateMutability": "view",
            "type": "function"
        },
        {
            "inputs": [
                {
                    "internalType": "address",
                    "name": "user",
                    "type": "address"
                },
                {
                    "internalType": "bytes32",
                    "name": "fileHash",
                    "type": "bytes32"
                }
            ],
            "name": "verifyHash",
            "outputs": [
                {
                    "internalType": "bool",
                    "name": "",
                    "type": "bool"
                }
            ],
            "stateMutability": "view",
            "type": "function"
        }
    ],
    "bytecode": "0x608060405234801561001057600080fd5b50610385806100206000396000f3fe608060405234801561001057600080fd5b506004361061004c5760003560e01c80638f1de16e146100515780638f72e20e14610066578063a5c2d6cd1461009c578063c7aedd1f146100c4575b600080fd5b61006461005f366004610221565b6100e4565b005b61008661007436600461027c565b60016020526000908152604090205481565b60405161009391906102a5565b60405180910390f35b6100866100aa3660046102b3565b600060208181529281526040808220909352908152205481565b6100d76100d23660046102b3565b610176565b60405161009391906102f8565b3360008181526001602081815260408084208054858452828620818752845291852087905594845291905282549092909161011e83610335565b9190505550803373ffffffffffffffffffffffffffffffffffffffff167f6e73c1e24773f14d821838604322244ba72d71096f3a59214bd65eae758ae1a38460405161016a91906102a5565b60405180910390a35050565b73ffffffffffffffffffffffffffffffffffffffff8216600090815260016020526040812054815b818110156101f95773ffffffffffffffffffffffffffffffffffffffff85166000908152602081815260408083208484529091529020548490036101e757600192505050610200565b806101f181610335565b91505061019e565b5060009150505b92915050565b805b811461021357600080fd5b50565b803561020081610206565b60006020828403121561023657610236600080fd5b60006102428484610216565b949350505050565b600073ffffffffffffffffffffffffffffffffffffffff8216610200565b6102088161024a565b803561020081610268565b60006020828403121561029157610291600080fd5b60006102428484610271565b805b82525050565b60208101610200828461029d565b600080604083850312156102c9576102c9600080fd5b60006102d58585610271565b92505060206102e685828601610216565b9150509250929050565b80151561029f565b6020810161020082846102f0565b7f4e487b7100000000000000000000000000000000000000000000000000000000600052601160045260246000fd5b6000600019820361034857610348610306565b506001019056fea2646970667358221220555904bacb7053cccd5e4436fb391a2c898552f708ac53055a64f594e502551464736f6c63430008110033",
    "linkReferences": {},
    "deployedLinkReferences": {}
}